{
	"data": {
		"bytecode": {
			"linkReferences": {},
			"object": "60806040526000805534801561001457600080fd5b5060b4806100236000396000f3fe6080604052348015600f57600080fd5b506004361060325760003560e01c80639ff9a603146037578063e5aa3d5814603f575b600080fd5b603d605b565b005b60456078565b6040518082815260200191505060405180910390f35b5b60011560765760016000808282540192505081905550605c565b565b6000548156fea2646970667358221220c5eaeed36992bbdce8f20c7639bd81fefd0312bef11f7d511e276ce61938941a64736f6c63430007060033",
			"opcodes": "PUSH1 0x80 PUSH1 0x40 MSTORE PUSH1 0x0 DUP1 SSTORE CALLVALUE DUP1 ISZERO PUSH2 0x14 JUMPI PUSH1 0x0 DUP1 REVERT JUMPDEST POP PUSH1 0xB4 DUP1 PUSH2 0x23 PUSH1 0x0 CODECOPY PUSH1 0x0 RETURN INVALID PUSH1 0x80 PUSH1 0x40 MSTORE CALLVALUE DUP1 ISZERO PUSH1 0xF JUMPI PUSH1 0x0 DUP1 REVERT JUMPDEST POP PUSH1 0x4 CALLDATASIZE LT PUSH1 0x32 JUMPI PUSH1 0x0 CALLDATALOAD PUSH1 0xE0 SHR DUP1 PUSH4 0x9FF9A603 EQ PUSH1 0x37 JUMPI DUP1 PUSH4 0xE5AA3D58 EQ PUSH1 0x3F JUMPI JUMPDEST PUSH1 0x0 DUP1 REVERT JUMPDEST PUSH1 0x3D PUSH1 0x5B JUMP JUMPDEST STOP JUMPDEST PUSH1 0x45 PUSH1 0x78 JUMP JUMPDEST PUSH1 0x40 MLOAD DUP1 DUP3 DUP2 MSTORE PUSH1 0x20 ADD SWAP2 POP POP PUSH1 0x40 MLOAD DUP1 SWAP2 SUB SWAP1 RETURN JUMPDEST JUMPDEST PUSH1 0x1 ISZERO PUSH1 0x76 JUMPI PUSH1 0x1 PUSH1 0x0 DUP1 DUP3 DUP3 SLOAD ADD SWAP3 POP POP DUP2 SWAP1 SSTORE POP PUSH1 0x5C JUMP JUMPDEST JUMP JUMPDEST PUSH1 0x0 SLOAD DUP2 JUMP INVALID LOG2 PUSH5 0x6970667358 0x22 SLT KECCAK256 0xC5 0xEA 0xEE 0xD3 PUSH10 0x92BBDCE8F20C7639BD81 INVALID REVERT SUB SLT 0xBE CALL 0x1F PUSH30 0x511E276CE61938941A64736F6C6343000706003300000000000000000000 "
		},
		"gasEstimates": {
			"creation": {
				"codeDepositCost": "36000",
				"executionCost": "5093",
				"totalCost": "41093"
			},
			"external": {
				"forever()": "infinite",
				"i()": "1005"
			}
		},
		"methodIdentifiers": {
			"forever()": "9ff9a603",
			"i()": "e5aa3d58"
		}
	},
	"abi": [
		{
			"inputs": [],
			"name": "forever",
			"outputs": [],
			"stateMutability": "nonpayable",
			"type": "function"
		},
		{
			"inputs": [],
			"name": "i",
			"outputs": [
				{
					"internalType": "uint256",
					"name": "",
					"type": "uint256"
				}
			],
			"stateMutability": "view",
			"type": "function"
		}
	]
}